{
  "_format": "hh-sol-artifact-1",
  "contractName": "MediCare",
  "sourceName": "contracts/Contract.sol",
  "abi": [
    {
      "inputs": [],
      "stateMutability": "nonpayable",
      "type": "constructor"
    },
    {
      "inputs": [
        {
          "internalType": "address",
          "name": "sender",
          "type": "address"
        },
        {
          "internalType": "uint256",
          "name": "tokenId",
          "type": "uint256"
        },
        {
          "internalType": "address",
          "name": "owner",
          "type": "address"
        }
      ],
      "name": "ERC721IncorrectOwner",
      "type": "error"
    },
    {
      "inputs": [
        {
          "internalType": "address",
          "name": "operator",
          "type": "address"
        },
        {
          "internalType": "uint256",
          "name": "tokenId",
          "type": "uint256"
        }
      ],
      "name": "ERC721InsufficientApproval",
      "type": "error"
    },
    {
      "inputs": [
        {
          "internalType": "address",
          "name": "approver",
          "type": "address"
        }
      ],
      "name": "ERC721InvalidApprover",
      "type": "error"
    },
    {
      "inputs": [
        {
          "internalType": "address",
          "name": "operator",
          "type": "address"
        }
      ],
      "name": "ERC721InvalidOperator",
      "type": "error"
    },
    {
      "inputs": [
        {
          "internalType": "address",
          "name": "owner",
          "type": "address"
        }
      ],
      "name": "ERC721InvalidOwner",
      "type": "error"
    },
    {
      "inputs": [
        {
          "internalType": "address",
          "name": "receiver",
          "type": "address"
        }
      ],
      "name": "ERC721InvalidReceiver",
      "type": "error"
    },
    {
      "inputs": [
        {
          "internalType": "address",
          "name": "sender",
          "type": "address"
        }
      ],
      "name": "ERC721InvalidSender",
      "type": "error"
    },
    {
      "inputs": [
        {
          "internalType": "uint256",
          "name": "tokenId",
          "type": "uint256"
        }
      ],
      "name": "ERC721NonexistentToken",
      "type": "error"
    },
    {
      "anonymous": false,
      "inputs": [
        {
          "indexed": true,
          "internalType": "address",
          "name": "owner",
          "type": "address"
        },
        {
          "indexed": true,
          "internalType": "address",
          "name": "approved",
          "type": "address"
        },
        {
          "indexed": true,
          "internalType": "uint256",
          "name": "tokenId",
          "type": "uint256"
        }
      ],
      "name": "Approval",
      "type": "event"
    },
    {
      "anonymous": false,
      "inputs": [
        {
          "indexed": true,
          "internalType": "address",
          "name": "owner",
          "type": "address"
        },
        {
          "indexed": true,
          "internalType": "address",
          "name": "operator",
          "type": "address"
        },
        {
          "indexed": false,
          "internalType": "bool",
          "name": "approved",
          "type": "bool"
        }
      ],
      "name": "ApprovalForAll",
      "type": "event"
    },
    {
      "anonymous": false,
      "inputs": [
        {
          "indexed": false,
          "internalType": "uint256",
          "name": "_fromTokenId",
          "type": "uint256"
        },
        {
          "indexed": false,
          "internalType": "uint256",
          "name": "_toTokenId",
          "type": "uint256"
        }
      ],
      "name": "BatchMetadataUpdate",
      "type": "event"
    },
    {
      "anonymous": false,
      "inputs": [
        {
          "indexed": false,
          "internalType": "uint256",
          "name": "_tokenId",
          "type": "uint256"
        }
      ],
      "name": "MetadataUpdate",
      "type": "event"
    },
    {
      "anonymous": false,
      "inputs": [
        {
          "indexed": true,
          "internalType": "address",
          "name": "from",
          "type": "address"
        },
        {
          "indexed": true,
          "internalType": "address",
          "name": "to",
          "type": "address"
        },
        {
          "indexed": true,
          "internalType": "uint256",
          "name": "tokenId",
          "type": "uint256"
        }
      ],
      "name": "Transfer",
      "type": "event"
    },
    {
      "inputs": [
        {
          "internalType": "address",
          "name": "to",
          "type": "address"
        },
        {
          "internalType": "uint256",
          "name": "tokenId",
          "type": "uint256"
        }
      ],
      "name": "approve",
      "outputs": [],
      "stateMutability": "nonpayable",
      "type": "function"
    },
    {
      "inputs": [
        {
          "internalType": "address",
          "name": "owner",
          "type": "address"
        }
      ],
      "name": "balanceOf",
      "outputs": [
        {
          "internalType": "uint256",
          "name": "",
          "type": "uint256"
        }
      ],
      "stateMutability": "view",
      "type": "function"
    },
    {
      "inputs": [
        {
          "internalType": "string",
          "name": "_tokenURI",
          "type": "string"
        },
        {
          "internalType": "uint256",
          "name": "_price",
          "type": "uint256"
        }
      ],
      "name": "createToken",
      "outputs": [
        {
          "internalType": "uint256",
          "name": "",
          "type": "uint256"
        }
      ],
      "stateMutability": "nonpayable",
      "type": "function"
    },
    {
      "inputs": [
        {
          "internalType": "uint256",
          "name": "tokenId",
          "type": "uint256"
        }
      ],
      "name": "getApproved",
      "outputs": [
        {
          "internalType": "address",
          "name": "",
          "type": "address"
        }
      ],
      "stateMutability": "view",
      "type": "function"
    },
    {
      "inputs": [],
      "name": "getCurrentTokenId",
      "outputs": [
        {
          "internalType": "uint256",
          "name": "",
          "type": "uint256"
        }
      ],
      "stateMutability": "view",
      "type": "function"
    },
    {
      "inputs": [],
      "name": "getListingFeePercent",
      "outputs": [
        {
          "internalType": "uint256",
          "name": "",
          "type": "uint256"
        }
      ],
      "stateMutability": "view",
      "type": "function"
    },
    {
      "inputs": [],
      "name": "getMyNFTs",
      "outputs": [
        {
          "components": [
            {
              "internalType": "uint256",
              "name": "tokenId",
              "type": "uint256"
            },
            {
              "internalType": "address payable",
              "name": "owner",
              "type": "address"
            },
            {
              "internalType": "address payable",
              "name": "seller",
              "type": "address"
            },
            {
              "internalType": "uint256",
              "name": "price",
              "type": "uint256"
            }
          ],
          "internalType": "struct MediCare.NFTListing[]",
          "name": "",
          "type": "tuple[]"
        }
      ],
      "stateMutability": "view",
      "type": "function"
    },
    {
      "inputs": [
        {
          "internalType": "uint256",
          "name": "_tokenId",
          "type": "uint256"
        }
      ],
      "name": "getNFTListing",
      "outputs": [
        {
          "components": [
            {
              "internalType": "uint256",
              "name": "tokenId",
              "type": "uint256"
            },
            {
              "internalType": "address payable",
              "name": "owner",
              "type": "address"
            },
            {
              "internalType": "address payable",
              "name": "seller",
              "type": "address"
            },
            {
              "internalType": "uint256",
              "name": "price",
              "type": "uint256"
            }
          ],
          "internalType": "struct MediCare.NFTListing",
          "name": "",
          "type": "tuple"
        }
      ],
      "stateMutability": "view",
      "type": "function"
    },
    {
      "inputs": [
        {
          "internalType": "address",
          "name": "owner",
          "type": "address"
        },
        {
          "internalType": "address",
          "name": "operator",
          "type": "address"
        }
      ],
      "name": "isApprovedForAll",
      "outputs": [
        {
          "internalType": "bool",
          "name": "",
          "type": "bool"
        }
      ],
      "stateMutability": "view",
      "type": "function"
    },
    {
      "inputs": [],
      "name": "listingFeePercent",
      "outputs": [
        {
          "internalType": "uint256",
          "name": "",
          "type": "uint256"
        }
      ],
      "stateMutability": "view",
      "type": "function"
    },
    {
      "inputs": [],
      "name": "marketplaceOwner",
      "outputs": [
        {
          "internalType": "address payable",
          "name": "",
          "type": "address"
        }
      ],
      "stateMutability": "view",
      "type": "function"
    },
    {
      "inputs": [],
      "name": "name",
      "outputs": [
        {
          "internalType": "string",
          "name": "",
          "type": "string"
        }
      ],
      "stateMutability": "view",
      "type": "function"
    },
    {
      "inputs": [
        {
          "internalType": "uint256",
          "name": "tokenId",
          "type": "uint256"
        }
      ],
      "name": "ownerOf",
      "outputs": [
        {
          "internalType": "address",
          "name": "",
          "type": "address"
        }
      ],
      "stateMutability": "view",
      "type": "function"
    },
    {
      "inputs": [
        {
          "internalType": "address",
          "name": "from",
          "type": "address"
        },
        {
          "internalType": "address",
          "name": "to",
          "type": "address"
        },
        {
          "internalType": "uint256",
          "name": "tokenId",
          "type": "uint256"
        }
      ],
      "name": "safeTransferFrom",
      "outputs": [],
      "stateMutability": "nonpayable",
      "type": "function"
    },
    {
      "inputs": [
        {
          "internalType": "address",
          "name": "from",
          "type": "address"
        },
        {
          "internalType": "address",
          "name": "to",
          "type": "address"
        },
        {
          "internalType": "uint256",
          "name": "tokenId",
          "type": "uint256"
        },
        {
          "internalType": "bytes",
          "name": "data",
          "type": "bytes"
        }
      ],
      "name": "safeTransferFrom",
      "outputs": [],
      "stateMutability": "nonpayable",
      "type": "function"
    },
    {
      "inputs": [
        {
          "internalType": "address",
          "name": "operator",
          "type": "address"
        },
        {
          "internalType": "bool",
          "name": "approved",
          "type": "bool"
        }
      ],
      "name": "setApprovalForAll",
      "outputs": [],
      "stateMutability": "nonpayable",
      "type": "function"
    },
    {
      "inputs": [
        {
          "internalType": "bytes4",
          "name": "interfaceId",
          "type": "bytes4"
        }
      ],
      "name": "supportsInterface",
      "outputs": [
        {
          "internalType": "bool",
          "name": "",
          "type": "bool"
        }
      ],
      "stateMutability": "view",
      "type": "function"
    },
    {
      "inputs": [],
      "name": "symbol",
      "outputs": [
        {
          "internalType": "string",
          "name": "",
          "type": "string"
        }
      ],
      "stateMutability": "view",
      "type": "function"
    },
    {
      "inputs": [
        {
          "internalType": "uint256",
          "name": "tokenId",
          "type": "uint256"
        }
      ],
      "name": "tokenURI",
      "outputs": [
        {
          "internalType": "string",
          "name": "",
          "type": "string"
        }
      ],
      "stateMutability": "view",
      "type": "function"
    },
    {
      "inputs": [
        {
          "internalType": "address",
          "name": "from",
          "type": "address"
        },
        {
          "internalType": "address",
          "name": "to",
          "type": "address"
        },
        {
          "internalType": "uint256",
          "name": "tokenId",
          "type": "uint256"
        }
      ],
      "name": "transferFrom",
      "outputs": [],
      "stateMutability": "nonpayable",
      "type": "function"
    },
    {
      "inputs": [
        {
          "internalType": "uint256",
          "name": "_listingFeePercent",
          "type": "uint256"
        }
      ],
      "name": "updateListingFeePercent",
      "outputs": [],
      "stateMutability": "nonpayable",
      "type": "function"
    }
  ],
  "bytecode": "0x608060405260146008553480156200001657600080fd5b506040518060400160405280600881526020017f4e465453544f52450000000000000000000000000000000000000000000000008152506040518060400160405280600481526020017f4e4654530000000000000000000000000000000000000000000000000000000081525081600090816200009491906200036a565b508060019081620000a691906200036a565b50505033600760006101000a81548173ffffffffffffffffffffffffffffffffffffffff021916908373ffffffffffffffffffffffffffffffffffffffff16021790555062000451565b600081519050919050565b7f4e487b7100000000000000000000000000000000000000000000000000000000600052604160045260246000fd5b7f4e487b7100000000000000000000000000000000000000000000000000000000600052602260045260246000fd5b600060028204905060018216806200017257607f821691505b6020821081036200018857620001876200012a565b5b50919050565b60008190508160005260206000209050919050565b60006020601f8301049050919050565b600082821b905092915050565b600060088302620001f27fffffffffffffffffffffffffffffffffffffffffffffffffffffffffffffffff82620001b3565b620001fe8683620001b3565b95508019841693508086168417925050509392505050565b6000819050919050565b6000819050919050565b60006200024b620002456200023f8462000216565b62000220565b62000216565b9050919050565b6000819050919050565b62000267836200022a565b6200027f620002768262000252565b848454620001c0565b825550505050565b600090565b6200029662000287565b620002a38184846200025c565b505050565b5b81811015620002cb57620002bf6000826200028c565b600181019050620002a9565b5050565b601f8211156200031a57620002e4816200018e565b620002ef84620001a3565b81016020851015620002ff578190505b620003176200030e85620001a3565b830182620002a8565b50505b505050565b600082821c905092915050565b60006200033f600019846008026200031f565b1980831691505092915050565b60006200035a83836200032c565b9150826002028217905092915050565b6200037582620000f0565b67ffffffffffffffff811115620003915762000390620000fb565b5b6200039d825462000159565b620003aa828285620002cf565b600060209050601f831160018114620003e25760008415620003cd578287015190505b620003d985826200034c565b86555062000449565b601f198416620003f2866200018e565b60005b828110156200041c57848901518255600182019150602085019450602081019050620003f5565b868310156200043c578489015162000438601f8916826200032c565b8355505b6001600288020188555050505b505050505050565b612fa380620004616000396000f3fe608060405234801561001057600080fd5b50600436106101375760003560e01c8063629cb2e4116100b857806395d89b411161007c57806395d89b4114610364578063a22cb46514610382578063ac6a91851461039e578063b88d4fde146103ba578063c87b56dd146103d6578063e985e9c51461040657610137565b8063629cb2e4146102985780636352211e146102b6578063650025a0146102e657806370a082311461030457806372b3b6201461033457610137565b80630ea59c4b116100ff5780630ea59c4b146101f457806323b872dd1461022457806342842e0e14610240578063561892361461025c5780636151ff2e1461027a57610137565b806301ffc9a71461013c57806306fc12451461016c57806306fdde031461018a578063081812fc146101a8578063095ea7b3146101d8575b600080fd5b610156600480360381019061015191906120aa565b610436565b60405161016391906120f2565b60405180910390f35b610174610497565b6040516101819190612126565b60405180910390f35b6101926104a1565b60405161019f91906121d1565b60405180910390f35b6101c260048036038101906101bd919061221f565b610533565b6040516101cf919061228d565b60405180910390f35b6101f260048036038101906101ed91906122d4565b61054f565b005b61020e6004803603810190610209919061221f565b610565565b60405161021b9190612399565b60405180910390f35b61023e600480360381019061023991906123b4565b610652565b005b61025a600480360381019061025591906123b4565b610754565b005b610264610774565b6040516102719190612126565b60405180910390f35b61028261077e565b60405161028f9190612126565b60405180910390f35b6102a0610784565b6040516102ad919061250b565b60405180910390f35b6102d060048036038101906102cb919061221f565b610b32565b6040516102dd919061228d565b60405180910390f35b6102ee610b44565b6040516102fb919061253c565b60405180910390f35b61031e60048036038101906103199190612557565b610b6a565b60405161032b9190612126565b60405180910390f35b61034e600480360381019061034991906126b9565b610c24565b60405161035b9190612126565b60405180910390f35b61036c610caf565b60405161037991906121d1565b60405180910390f35b61039c60048036038101906103979190612741565b610d41565b005b6103b860048036038101906103b3919061221f565b610d57565b005b6103d460048036038101906103cf9190612822565b610df1565b005b6103f060048036038101906103eb919061221f565b610e16565b6040516103fd91906121d1565b60405180910390f35b610420600480360381019061041b91906128a5565b610f29565b60405161042d91906120f2565b60405180910390f35b6000634906490660e01b7bffffffffffffffffffffffffffffffffffffffffffffffffffffffff1916827bffffffffffffffffffffffffffffffffffffffffffffffffffffffff19161480610490575061048f82610fbd565b5b9050919050565b6000600854905090565b6060600080546104b090612914565b80601f01602080910402602001604051908101604052809291908181526020018280546104dc90612914565b80156105295780601f106104fe57610100808354040283529160200191610529565b820191906000526020600020905b81548152906001019060200180831161050c57829003601f168201915b5050505050905090565b600061053e8261109f565b5061054882611127565b9050919050565b610561828261055c611164565b61116c565b5050565b61056d611fea565b600b6000838152602001908152602001600020604051806080016040529081600082015481526020016001820160009054906101000a900473ffffffffffffffffffffffffffffffffffffffff1673ffffffffffffffffffffffffffffffffffffffff1673ffffffffffffffffffffffffffffffffffffffff1681526020016002820160009054906101000a900473ffffffffffffffffffffffffffffffffffffffff1673ffffffffffffffffffffffffffffffffffffffff1673ffffffffffffffffffffffffffffffffffffffff1681526020016003820154815250509050919050565b600073ffffffffffffffffffffffffffffffffffffffff168273ffffffffffffffffffffffffffffffffffffffff16036106c45760006040517f64a0ae920000000000000000000000000000000000000000000000000000000081526004016106bb919061228d565b60405180910390fd5b60006106d883836106d3611164565b61117e565b90508373ffffffffffffffffffffffffffffffffffffffff168173ffffffffffffffffffffffffffffffffffffffff161461074e578382826040517f64283d7b00000000000000000000000000000000000000000000000000000000815260040161074593929190612945565b60405180910390fd5b50505050565b61076f83838360405180602001604052806000815250610df1565b505050565b6000600954905090565b60085481565b60606000600954905060008060005b838110156108a5573373ffffffffffffffffffffffffffffffffffffffff16600b60006001846107c391906129ab565b815260200190815260200160002060010160009054906101000a900473ffffffffffffffffffffffffffffffffffffffff1673ffffffffffffffffffffffffffffffffffffffff16148061088457503373ffffffffffffffffffffffffffffffffffffffff16600b600060018461083a91906129ab565b815260200190815260200160002060020160009054906101000a900473ffffffffffffffffffffffffffffffffffffffff1673ffffffffffffffffffffffffffffffffffffffff16145b15610898578280610894906129df565b9350505b8080600101915050610793565b5060008267ffffffffffffffff8111156108c2576108c161258e565b5b6040519080825280602002602001820160405280156108fb57816020015b6108e8611fea565b8152602001906001900390816108e05790505b50905060005b84811015610b27573373ffffffffffffffffffffffffffffffffffffffff16600b600060018461093191906129ab565b815260200190815260200160002060010160009054906101000a900473ffffffffffffffffffffffffffffffffffffffff1673ffffffffffffffffffffffffffffffffffffffff1614806109f257503373ffffffffffffffffffffffffffffffffffffffff16600b60006001846109a891906129ab565b815260200190815260200160002060020160009054906101000a900473ffffffffffffffffffffffffffffffffffffffff1673ffffffffffffffffffffffffffffffffffffffff16145b15610b1a576000600182610a0691906129ab565b90506000600b6000838152602001908152602001600020905080604051806080016040529081600082015481526020016001820160009054906101000a900473ffffffffffffffffffffffffffffffffffffffff1673ffffffffffffffffffffffffffffffffffffffff1673ffffffffffffffffffffffffffffffffffffffff1681526020016002820160009054906101000a900473ffffffffffffffffffffffffffffffffffffffff1673ffffffffffffffffffffffffffffffffffffffff1673ffffffffffffffffffffffffffffffffffffffff168152602001600382015481525050848681518110610afe57610afd612a27565b5b60200260200101819052508480610b14906129df565b95505050505b8080600101915050610901565b508094505050505090565b6000610b3d8261109f565b9050919050565b600760009054906101000a900473ffffffffffffffffffffffffffffffffffffffff1681565b60008073ffffffffffffffffffffffffffffffffffffffff168273ffffffffffffffffffffffffffffffffffffffff1603610bdd5760006040517f89c62b64000000000000000000000000000000000000000000000000000000008152600401610bd4919061228d565b60405180910390fd5b600360008373ffffffffffffffffffffffffffffffffffffffff1673ffffffffffffffffffffffffffffffffffffffff168152602001908152602001600020549050919050565b6000808211610c68576040517f08c379a0000000000000000000000000000000000000000000000000000000008152600401610c5f90612aa2565b60405180910390fd5b60096000815480929190610c7b906129df565b919050555060006009549050610c913382611398565b610c9b81856113b6565b610ca58184611412565b8091505092915050565b606060018054610cbe90612914565b80601f0160208091040260200160405190810160405280929190818152602001828054610cea90612914565b8015610d375780601f10610d0c57610100808354040283529160200191610d37565b820191906000526020600020905b815481529060010190602001808311610d1a57829003601f168201915b5050505050905090565b610d53610d4c611164565b838361151b565b5050565b600760009054906101000a900473ffffffffffffffffffffffffffffffffffffffff1673ffffffffffffffffffffffffffffffffffffffff163373ffffffffffffffffffffffffffffffffffffffff1614610de7576040517f08c379a0000000000000000000000000000000000000000000000000000000008152600401610dde90612b34565b60405180910390fd5b8060088190555050565b610dfc848484610652565b610e10610e07611164565b8585858561168a565b50505050565b6060610e218261109f565b506000600660008481526020019081526020016000208054610e4290612914565b80601f0160208091040260200160405190810160405280929190818152602001828054610e6e90612914565b8015610ebb5780601f10610e9057610100808354040283529160200191610ebb565b820191906000526020600020905b815481529060010190602001808311610e9e57829003601f168201915b505050505090506000610ecc61183b565b90506000815103610ee1578192505050610f24565b600082511115610f16578082604051602001610efe929190612b90565b60405160208183030381529060405292505050610f24565b610f1f84611852565b925050505b919050565b6000600560008473ffffffffffffffffffffffffffffffffffffffff1673ffffffffffffffffffffffffffffffffffffffff16815260200190815260200160002060008373ffffffffffffffffffffffffffffffffffffffff1673ffffffffffffffffffffffffffffffffffffffff16815260200190815260200160002060009054906101000a900460ff16905092915050565b60007f80ac58cd000000000000000000000000000000000000000000000000000000007bffffffffffffffffffffffffffffffffffffffffffffffffffffffff1916827bffffffffffffffffffffffffffffffffffffffffffffffffffffffff1916148061108857507f5b5e139f000000000000000000000000000000000000000000000000000000007bffffffffffffffffffffffffffffffffffffffffffffffffffffffff1916827bffffffffffffffffffffffffffffffffffffffffffffffffffffffff1916145b806110985750611097826118bb565b5b9050919050565b6000806110ab83611925565b9050600073ffffffffffffffffffffffffffffffffffffffff168173ffffffffffffffffffffffffffffffffffffffff160361111e57826040517f7e2732890000000000000000000000000000000000000000000000000000000081526004016111159190612126565b60405180910390fd5b80915050919050565b60006004600083815260200190815260200160002060009054906101000a900473ffffffffffffffffffffffffffffffffffffffff169050919050565b600033905090565b6111798383836001611962565b505050565b60008061118a84611925565b9050600073ffffffffffffffffffffffffffffffffffffffff168373ffffffffffffffffffffffffffffffffffffffff16146111cc576111cb818486611b27565b5b600073ffffffffffffffffffffffffffffffffffffffff168173ffffffffffffffffffffffffffffffffffffffff161461125d5761120e600085600080611962565b6001600360008373ffffffffffffffffffffffffffffffffffffffff1673ffffffffffffffffffffffffffffffffffffffff168152602001908152602001600020600082825403925050819055505b600073ffffffffffffffffffffffffffffffffffffffff168573ffffffffffffffffffffffffffffffffffffffff16146112e0576001600360008773ffffffffffffffffffffffffffffffffffffffff1673ffffffffffffffffffffffffffffffffffffffff168152602001908152602001600020600082825401925050819055505b846002600086815260200190815260200160002060006101000a81548173ffffffffffffffffffffffffffffffffffffffff021916908373ffffffffffffffffffffffffffffffffffffffff160217905550838573ffffffffffffffffffffffffffffffffffffffff168273ffffffffffffffffffffffffffffffffffffffff167fddf252ad1be2c89b69c2b068fc378daa952ba7f163c4a11628f55a4df523b3ef60405160405180910390a4809150509392505050565b6113b2828260405180602001604052806000815250611beb565b5050565b806006600084815260200190815260200160002090816113d69190612d60565b507ff8e1a15aba9398e019f0b49df1a4fde98ee17ae345cb5f6b5e2c27f5033e8ce7826040516114069190612126565b60405180910390a15050565b60405180608001604052808381526020013373ffffffffffffffffffffffffffffffffffffffff1681526020013373ffffffffffffffffffffffffffffffffffffffff16815260200182815250600b60008481526020019081526020016000206000820151816000015560208201518160010160006101000a81548173ffffffffffffffffffffffffffffffffffffffff021916908373ffffffffffffffffffffffffffffffffffffffff16021790555060408201518160020160006101000a81548173ffffffffffffffffffffffffffffffffffffffff021916908373ffffffffffffffffffffffffffffffffffffffff160217905550606082015181600301559050505050565b600073ffffffffffffffffffffffffffffffffffffffff168273ffffffffffffffffffffffffffffffffffffffff160361158c57816040517f5b08ba18000000000000000000000000000000000000000000000000000000008152600401611583919061228d565b60405180910390fd5b80600560008573ffffffffffffffffffffffffffffffffffffffff1673ffffffffffffffffffffffffffffffffffffffff16815260200190815260200160002060008473ffffffffffffffffffffffffffffffffffffffff1673ffffffffffffffffffffffffffffffffffffffff16815260200190815260200160002060006101000a81548160ff0219169083151502179055508173ffffffffffffffffffffffffffffffffffffffff168373ffffffffffffffffffffffffffffffffffffffff167f17307eab39ab6107e8899845ad3d59bd9653f200f220920489ca2b5937696c318360405161167d91906120f2565b60405180910390a3505050565b60008373ffffffffffffffffffffffffffffffffffffffff163b1115611834578273ffffffffffffffffffffffffffffffffffffffff1663150b7a02868685856040518563ffffffff1660e01b81526004016116e99493929190612e87565b6020604051808303816000875af192505050801561172557506040513d601f19601f820116820180604052508101906117229190612ee8565b60015b6117a9573d8060008114611755576040519150601f19603f3d011682016040523d82523d6000602084013e61175a565b606091505b5060008151036117a157836040517f64a0ae92000000000000000000000000000000000000000000000000000000008152600401611798919061228d565b60405180910390fd5b805181602001fd5b63150b7a0260e01b7bffffffffffffffffffffffffffffffffffffffffffffffffffffffff1916817bffffffffffffffffffffffffffffffffffffffffffffffffffffffff19161461183257836040517f64a0ae92000000000000000000000000000000000000000000000000000000008152600401611829919061228d565b60405180910390fd5b505b5050505050565b606060405180602001604052806000815250905090565b606061185d8261109f565b50600061186861183b565b9050600081511161188857604051806020016040528060008152506118b3565b8061189284611c0f565b6040516020016118a3929190612b90565b6040516020818303038152906040525b915050919050565b60007f01ffc9a7000000000000000000000000000000000000000000000000000000007bffffffffffffffffffffffffffffffffffffffffffffffffffffffff1916827bffffffffffffffffffffffffffffffffffffffffffffffffffffffff1916149050919050565b60006002600083815260200190815260200160002060009054906101000a900473ffffffffffffffffffffffffffffffffffffffff169050919050565b808061199b5750600073ffffffffffffffffffffffffffffffffffffffff168273ffffffffffffffffffffffffffffffffffffffff1614155b15611acf5760006119ab8461109f565b9050600073ffffffffffffffffffffffffffffffffffffffff168373ffffffffffffffffffffffffffffffffffffffff1614158015611a1657508273ffffffffffffffffffffffffffffffffffffffff168173ffffffffffffffffffffffffffffffffffffffff1614155b8015611a295750611a278184610f29565b155b15611a6b57826040517fa9fbf51f000000000000000000000000000000000000000000000000000000008152600401611a62919061228d565b60405180910390fd5b8115611acd57838573ffffffffffffffffffffffffffffffffffffffff168273ffffffffffffffffffffffffffffffffffffffff167f8c5be1e5ebec7d5bd14f71427d1e84f3dd0314c0f7b2291e5b200ac8c7c3b92560405160405180910390a45b505b836004600085815260200190815260200160002060006101000a81548173ffffffffffffffffffffffffffffffffffffffff021916908373ffffffffffffffffffffffffffffffffffffffff16021790555050505050565b611b32838383611cdd565b611be657600073ffffffffffffffffffffffffffffffffffffffff168373ffffffffffffffffffffffffffffffffffffffff1603611ba757806040517f7e273289000000000000000000000000000000000000000000000000000000008152600401611b9e9190612126565b60405180910390fd5b81816040517f177e802f000000000000000000000000000000000000000000000000000000008152600401611bdd929190612f15565b60405180910390fd5b505050565b611bf58383611d9e565b611c0a611c00611164565b600085858561168a565b505050565b606060006001611c1e84611e97565b01905060008167ffffffffffffffff811115611c3d57611c3c61258e565b5b6040519080825280601f01601f191660200182016040528015611c6f5781602001600182028036833780820191505090505b509050600082602001820190505b600115611cd2578080600190039150507f3031323334353637383961626364656600000000000000000000000000000000600a86061a8153600a8581611cc657611cc5612f3e565b5b04945060008503611c7d575b819350505050919050565b60008073ffffffffffffffffffffffffffffffffffffffff168373ffffffffffffffffffffffffffffffffffffffff1614158015611d9557508273ffffffffffffffffffffffffffffffffffffffff168473ffffffffffffffffffffffffffffffffffffffff161480611d565750611d558484610f29565b5b80611d9457508273ffffffffffffffffffffffffffffffffffffffff16611d7c83611127565b73ffffffffffffffffffffffffffffffffffffffff16145b5b90509392505050565b600073ffffffffffffffffffffffffffffffffffffffff168273ffffffffffffffffffffffffffffffffffffffff1603611e105760006040517f64a0ae92000000000000000000000000000000000000000000000000000000008152600401611e07919061228d565b60405180910390fd5b6000611e1e8383600061117e565b9050600073ffffffffffffffffffffffffffffffffffffffff168173ffffffffffffffffffffffffffffffffffffffff1614611e925760006040517f73c6ac6e000000000000000000000000000000000000000000000000000000008152600401611e89919061228d565b60405180910390fd5b505050565b600080600090507a184f03e93ff9f4daa797ed6e38ed64bf6a1f0100000000000000008310611ef5577a184f03e93ff9f4daa797ed6e38ed64bf6a1f0100000000000000008381611eeb57611eea612f3e565b5b0492506040810190505b6d04ee2d6d415b85acef81000000008310611f32576d04ee2d6d415b85acef81000000008381611f2857611f27612f3e565b5b0492506020810190505b662386f26fc100008310611f6157662386f26fc100008381611f5757611f56612f3e565b5b0492506010810190505b6305f5e1008310611f8a576305f5e1008381611f8057611f7f612f3e565b5b0492506008810190505b6127108310611faf576127108381611fa557611fa4612f3e565b5b0492506004810190505b60648310611fd25760648381611fc857611fc7612f3e565b5b0492506002810190505b600a8310611fe1576001810190505b80915050919050565b604051806080016040528060008152602001600073ffffffffffffffffffffffffffffffffffffffff168152602001600073ffffffffffffffffffffffffffffffffffffffff168152602001600081525090565b6000604051905090565b600080fd5b600080fd5b60007fffffffff0000000000000000000000000000000000000000000000000000000082169050919050565b61208781612052565b811461209257600080fd5b50565b6000813590506120a48161207e565b92915050565b6000602082840312156120c0576120bf612048565b5b60006120ce84828501612095565b91505092915050565b60008115159050919050565b6120ec816120d7565b82525050565b600060208201905061210760008301846120e3565b92915050565b6000819050919050565b6121208161210d565b82525050565b600060208201905061213b6000830184612117565b92915050565b600081519050919050565b600082825260208201905092915050565b60005b8381101561217b578082015181840152602081019050612160565b60008484015250505050565b6000601f19601f8301169050919050565b60006121a382612141565b6121ad818561214c565b93506121bd81856020860161215d565b6121c681612187565b840191505092915050565b600060208201905081810360008301526121eb8184612198565b905092915050565b6121fc8161210d565b811461220757600080fd5b50565b600081359050612219816121f3565b92915050565b60006020828403121561223557612234612048565b5b60006122438482850161220a565b91505092915050565b600073ffffffffffffffffffffffffffffffffffffffff82169050919050565b60006122778261224c565b9050919050565b6122878161226c565b82525050565b60006020820190506122a2600083018461227e565b92915050565b6122b18161226c565b81146122bc57600080fd5b50565b6000813590506122ce816122a8565b92915050565b600080604083850312156122eb576122ea612048565b5b60006122f9858286016122bf565b925050602061230a8582860161220a565b9150509250929050565b61231d8161210d565b82525050565b600061232e8261224c565b9050919050565b61233e81612323565b82525050565b60808201600082015161235a6000850182612314565b50602082015161236d6020850182612335565b5060408201516123806040850182612335565b5060608201516123936060850182612314565b50505050565b60006080820190506123ae6000830184612344565b92915050565b6000806000606084860312156123cd576123cc612048565b5b60006123db868287016122bf565b93505060206123ec868287016122bf565b92505060406123fd8682870161220a565b9150509250925092565b600081519050919050565b600082825260208201905092915050565b6000819050602082019050919050565b6080820160008201516124496000850182612314565b50602082015161245c6020850182612335565b50604082015161246f6040850182612335565b5060608201516124826060850182612314565b50505050565b60006124948383612433565b60808301905092915050565b6000602082019050919050565b60006124b882612407565b6124c28185612412565b93506124cd83612423565b8060005b838110156124fe5781516124e58882612488565b97506124f0836124a0565b9250506001810190506124d1565b5085935050505092915050565b6000602082019050818103600083015261252581846124ad565b905092915050565b61253681612323565b82525050565b6000602082019050612551600083018461252d565b92915050565b60006020828403121561256d5761256c612048565b5b600061257b848285016122bf565b91505092915050565b600080fd5b600080fd5b7f4e487b7100000000000000000000000000000000000000000000000000000000600052604160045260246000fd5b6125c682612187565b810181811067ffffffffffffffff821117156125e5576125e461258e565b5b80604052505050565b60006125f861203e565b905061260482826125bd565b919050565b600067ffffffffffffffff8211156126245761262361258e565b5b61262d82612187565b9050602081019050919050565b82818337600083830152505050565b600061265c61265784612609565b6125ee565b90508281526020810184848401111561267857612677612589565b5b61268384828561263a565b509392505050565b600082601f8301126126a05761269f612584565b5b81356126b0848260208601612649565b91505092915050565b600080604083850312156126d0576126cf612048565b5b600083013567ffffffffffffffff8111156126ee576126ed61204d565b5b6126fa8582860161268b565b925050602061270b8582860161220a565b9150509250929050565b61271e816120d7565b811461272957600080fd5b50565b60008135905061273b81612715565b92915050565b6000806040838503121561275857612757612048565b5b6000612766858286016122bf565b92505060206127778582860161272c565b9150509250929050565b600067ffffffffffffffff82111561279c5761279b61258e565b5b6127a582612187565b9050602081019050919050565b60006127c56127c084612781565b6125ee565b9050828152602081018484840111156127e1576127e0612589565b5b6127ec84828561263a565b509392505050565b600082601f83011261280957612808612584565b5b81356128198482602086016127b2565b91505092915050565b6000806000806080858703121561283c5761283b612048565b5b600061284a878288016122bf565b945050602061285b878288016122bf565b935050604061286c8782880161220a565b925050606085013567ffffffffffffffff81111561288d5761288c61204d565b5b612899878288016127f4565b91505092959194509250565b600080604083850312156128bc576128bb612048565b5b60006128ca858286016122bf565b92505060206128db858286016122bf565b9150509250929050565b7f4e487b7100000000000000000000000000000000000000000000000000000000600052602260045260246000fd5b6000600282049050600182168061292c57607f821691505b60208210810361293f5761293e6128e5565b5b50919050565b600060608201905061295a600083018661227e565b6129676020830185612117565b612974604083018461227e565b949350505050565b7f4e487b7100000000000000000000000000000000000000000000000000000000600052601160045260246000fd5b60006129b68261210d565b91506129c18361210d565b92508282019050808211156129d9576129d861297c565b5b92915050565b60006129ea8261210d565b91507fffffffffffffffffffffffffffffffffffffffffffffffffffffffffffffffff8203612a1c57612a1b61297c565b5b600182019050919050565b7f4e487b7100000000000000000000000000000000000000000000000000000000600052603260045260246000fd5b7f5072696365206d7573742062652067726561746572207468616e207a65726f00600082015250565b6000612a8c601f8361214c565b9150612a9782612a56565b602082019050919050565b60006020820190508181036000830152612abb81612a7f565b9050919050565b7f4f6e6c79206f776e65722063616e2063616c6c20746869732066756e6374696f60008201527f6e00000000000000000000000000000000000000000000000000000000000000602082015250565b6000612b1e60218361214c565b9150612b2982612ac2565b604082019050919050565b60006020820190508181036000830152612b4d81612b11565b9050919050565b600081905092915050565b6000612b6a82612141565b612b748185612b54565b9350612b8481856020860161215d565b80840191505092915050565b6000612b9c8285612b5f565b9150612ba88284612b5f565b91508190509392505050565b60008190508160005260206000209050919050565b60006020601f8301049050919050565b600082821b905092915050565b600060088302612c167fffffffffffffffffffffffffffffffffffffffffffffffffffffffffffffffff82612bd9565b612c208683612bd9565b95508019841693508086168417925050509392505050565b6000819050919050565b6000612c5d612c58612c538461210d565b612c38565b61210d565b9050919050565b6000819050919050565b612c7783612c42565b612c8b612c8382612c64565b848454612be6565b825550505050565b600090565b612ca0612c93565b612cab818484612c6e565b505050565b5b81811015612ccf57612cc4600082612c98565b600181019050612cb1565b5050565b601f821115612d1457612ce581612bb4565b612cee84612bc9565b81016020851015612cfd578190505b612d11612d0985612bc9565b830182612cb0565b50505b505050565b600082821c905092915050565b6000612d3760001984600802612d19565b1980831691505092915050565b6000612d508383612d26565b9150826002028217905092915050565b612d6982612141565b67ffffffffffffffff811115612d8257612d8161258e565b5b612d8c8254612914565b612d97828285612cd3565b600060209050601f831160018114612dca5760008415612db8578287015190505b612dc28582612d44565b865550612e2a565b601f198416612dd886612bb4565b60005b82811015612e0057848901518255600182019150602085019450602081019050612ddb565b86831015612e1d5784890151612e19601f891682612d26565b8355505b6001600288020188555050505b505050505050565b600081519050919050565b600082825260208201905092915050565b6000612e5982612e32565b612e638185612e3d565b9350612e7381856020860161215d565b612e7c81612187565b840191505092915050565b6000608082019050612e9c600083018761227e565b612ea9602083018661227e565b612eb66040830185612117565b8181036060830152612ec88184612e4e565b905095945050505050565b600081519050612ee28161207e565b92915050565b600060208284031215612efe57612efd612048565b5b6000612f0c84828501612ed3565b91505092915050565b6000604082019050612f2a600083018561227e565b612f376020830184612117565b9392505050565b7f4e487b7100000000000000000000000000000000000000000000000000000000600052601260045260246000fdfea2646970667358221220f61bb56720e0c3f9756718124eb05a99c1d66715cd83573b9024d37ce7ea7b2664736f6c63430008180033",
  "linkReferences": {},
  "deployedLinkReferences": {}
}